:020000040800F2
:10000000280A00209D01000815400008ED33000873
:1000100000000000000000000000000000000000E0
:10002000000000000000000000000000194200086D
:100030000000000000000000174000088542000892
:10004000AF01000800000000AF010008AF01000888
:10005000AF010008AF010008AF010008AF010008C0
:1000600000000000AF010008D5140008AF0100082F
:10007000AF010008AF010008AF0100080000000058
:10008000D14200080000000000000000AF0100089D
:100090000000000091420008AF010008AF01000815
:1000A000000000001940000800000000AF01000837
:1000B00000F002F800F046F80CA030C80838241808
:1000C0002D18671EA246AB4654465D46AC4201D190
:1000D00000F038F87E460F3EB6460FCC012633427C
:1000E00000D0FB1A3343A246AB461847EC5500003C
:1000F0000C560000103A02D378C878C1FAD85207DB
:1001000001D330C830C101D504680C6070470000CD
:100110000023002400250026103A01D378C1FBD823
:10012000520700D330C100D50B60704710B5782955
:1001300002D100F04FF810BD002010BD1FB51FBD4B
:1001400010B510BD00F0FCFF1146FFF7F7FF04F0FB
:10015000F1FB01F014F803B4FFF7F2FF03BC01F068
:1001600065F8000070B505460C46164602E00FCC57
:100170000FC5103E102EFAD2082E02D303CC03C5B1
:10018000083E042E07D301CC01C5361F03E02178B9
:100190002970641C6D1C761EF9D270BD074880471B
:1001A00007480047FEE7FEE7FEE7FEE7FEE7FEE75B
:1001B00004480549054A064B704700008D42000877
:1001C000B100000828040020280A0020280600208A
:1001D0002806002070B504460D4621461068C0462A
:1001E000C0462188090502D50F4A7A4402E00E4A2A
:1001F0007A440E3223460021243305E00607000925
:10020000360F965D5E54491C0028F7D120780023F4
:10021000000705D5702D03D0002901D0022311322B
:10022000204600F0D9FE70BDCA530000F8B5042A7C
:100230002CD3830712D00B78491C0370401C521E2C
:1002400083070BD00B78491C0370401C521E830798
:1002500004D00B78491C0370401C521E8B079B0F67
:1002600005D0C91ADF002023DE1B08C90AE0FFF70A
:1002700079FFF8BD1D4608C9FD401C46B4402C431B
:1002800010C0121F042AF5D2F308C91A521EF0D466
:100290000B78491C0370401C521EEAD40B78491C91
:1002A0000370401C012AE4D409780170F8BD01E014
:1002B00004C0091F0429FBD28B0701D50280801CD2
:1002C000C90700D00270704700290BD0C30702D0C5
:1002D0000270401C491E022904D3830702D5028004
:1002E000801C891EE3E70022EEE70022DFE770476B
:1002F000704770470246C80FC00781434B0030B5B6
:100300004B405B009B0D20D01923DB06C91801234D
:100310001B05994220DB0324A40704251346AB40A8
:100320000BD3002B04D1EB0613409B00E34204D413
:1003300001246407002312195941FF231B05994228
:100340000BD2C9000143500F09E0CB0204D5014391
:100350000803024305D0054830BDFF21C905084305
:1003600030BD084607210905884330BD0000C07F25
:10037000F0B50C46871A9C410D46861A9D4103D262
:10038000C01BA141D21963410D0D1F0DC94EEC1BBD
:10039000AE435CD07F057F0D0026002F51D02D0588
:1003A000AC46A943DD020123ED0A1B051D432023B2
:1003B0001B1B24D41746E740381871412F46E740ED
:1003C000CC199D402818314661410C0D27D161445C
:1003D0009A4013D50023401C594152000ED14008C9
:1003E000400001224B005205D34207D305204007AD
:1003F000C14201D5B04900E0B0493046F0BD6B00C4
:10040000002A00D001229A181F23203C1B1B01D573
:10041000002302E0E540281871410C0DD7D00124DB
:1004200024050919C407CD0740084908E40F2843EB
:100430006144002CD5D00024401C61419A40D0D1A9
:10044000CDE76A05520DD9D1C90FC907D5E79C4D33
:100450004E00002801D0012400E0002434195F0080
:10046000002A01D0012600E00026BE19954FAC42BB
:100470000CD8AE420AD8B44206D001256D05EC4234
:10048000BCD010461946F0BD9942FCD00020394638
:10049000F0BDF0B51FB40C460F46811A9F412546AA
:1004A000861A9D4106D20125ED076F40401ABC41D6
:1004B00052187B41210D1E0D8D1BAC467D4D8D4389
:1004C0007ED075056D0D7CD00D05AE46AC431B038B
:1004D0001B0B794D52429D41202366469B1B14D332
:1004E0001746F740381800260090744160462F46A2
:1004F0000741E41900989D402818664116D47146BA
:1005000071189A4025D5012320E093182A466A41A4
:100510005200002B00D0521C1E23203E9B1B002BA0
:1005200061DD3541EE1728186641E8D5001876419F
:100530005B1C9A4000D3401C4B05F3181524E34084
:1005400010D3002B52D071467118D30FC01802D3AC
:10055000491C05B0F0BD0123DB079A42F9D14008E0
:100560004000F6E701225205B21801D1002853D00D
:100570000123CC0ADB029943891E002A08D1020C10
:1005800003D0020C0004103902E00246002020399A
:100590000023550B05D112020823550B01D152013E
:1005A0000D23550C01D112011B1DD50C01D1920058
:1005B0009B1C150D01D152005B1C2025EE1A01E099
:1005C0002CE022E00546F54015439840CA1AE107A1
:1005D00069181305C918002ABBDA03204007081858
:1005E000C10FC9070FE071466118B2E7F107400873
:1005F0000843711071444A000CD001235B059A42F4
:10060000A7D2C90FC9070020A3E74905490D26D184
:10061000002001E00028F4D100219AE7284D66006F
:10062000002801D0012100E0002171185F00002A9C
:1006300001D0012600E00026BE19224FA94210D8A1
:10064000AE420ED8B14208D001256D05E94206D070
:100650001946A802414010467BE79C4201D0214642
:1006600077E70020394674E710B50C465C4005D5A5
:100670000124E4076340FFF70CFF10BDFFF778FE8D
:1006800010BD30B40C465C4004D50124E40763403F
:1006900030BC6DE630BCFCE670B50124E407614077
:1006A0000D465D4002D4FFF763FE70BD6340FFF767
:1006B000F0FE70BDFF0700000000F0FF0000F07FBB
:1006C0000000E0FF0000F87FF0B5F94D0C091E09AD
:1006D0002C402E402F468BB0A7437DD0B543FCD095
:1006E000002E7AD0002CFCD00D465D40ED0F254346
:1006F000AC1BFF25AD0464190894C502440DC90262
:100700002143500DDC0204430120C0070143044390
:10071000D2020191200C110C00958C460104234655
:100720008B430A9161460904E24D8A430991010A0B
:100730007D4449198039097805464D4301266D18D5
:10074000F605751B6943C90C640B891C4C4364187E
:10075000B5012C1B250C2E04B4434C434D43210CF6
:10076000691889090591009DE90701D00121C90790
:1007700004912C4601996708CD072F434C08059D2D
:10078000E10B4D432D0C29466646754302950D46F7
:1007900045432E46029D7D1BB44100950D465D43A9
:1007A00001942C0C2F040D465543AE462D0C3D43B1
:1007B000029503947546049C2D04641B049406D290
:1007C000029C039D641C002675410395029401ACB4
:1007D00070CC009F7D1B01E03EE162E1B441090461
:1007E0000095079101940599A4086143090C0C46F2
:1007F0004443650BE7040C4666467443A646640B07
:100800003C43039502947446049DE4042C1B049419
:1008100006D2029C039D641C002675410395029438
:1008200001AC70CC009F7D1BB44101940C465C432D
:100830000095650FE7000C465443A646640F3C4301
:10084000039502947446049DE4002C1B049406D284
:10085000029C039D641C002675410395029401AC23
:1008600070CC009F7D1BB441AE09AF06049DC9004A
:10087000AD092F43049DA406AD060495079D34439E
:1008800069180791059DE10B4D432D0C29466646DD
:10089000754302950D4645432E46029D7D1BB4418E
:1008A00000950D465D4301942C0C2F040D465543D5
:1008B000AE462D0C3D43029503947546049C2D04D1
:1008C000641B049406D2029C039D641C002675419F
:1008D0000395029401AC70CC009F7D1BB441019440
:1008E0008C050694079C890A611800950791019C64
:1008F0000599A4086143090C0D464543680BEF04B4
:100900000D46644665436C0B3C43049FED047D1B20
:10091000AC4602D20025641C6841009E019D371B35
:1009200085410846584301950C46460FC50054437F
:10093000600F28436546E4002C1B02D20025401CB2
:100940006E41019D3F1AB5412846BD0980062843E6
:100950008446A009BF064E020699A40676180743EE
:10096000079D002068410A99079019430020099BC0
:1009700000906046FF1913434041E20F64003A4380
:10098000A4460446D71A8C41A04203D90120009006
:1009900020463A46C70F941840416246D20F224380
:1009A000644664000494009CBE466400D71AA446C2
:1009B000044602978C417746002F01D1A04204D90A
:1009C0006046401C8446029A2046C40FA6469418EE
:1009D0004041049A0546D20F224364466400D31A6C
:1009E0008D417146002901D1A84202D928461A46F4
:1009F000641C10430122002800D01643610200202D
:100A0000079B891904465C410223002C02DB49182C
:100A100013466441089DCE0A2D145D194B056705E8
:100A2000E10A2C050D1908993E43C9076940002BBE
:100A300008D0934006D30022761C5141002B01D1EF
:100A4000760876001C4A002D43DB154241D0AA43AC
:100A50003FD030460BB0F0BD06180D464D41174C47
:100A60007642AC411AD395181C465C41134A6D423C
:100A7000A24113D3012252054C00D4420AD15C009A
:100A8000D4420BD04B4002D592021143E2E7490019
:100A90004908DFE75940C90FC90718E00020084995
:100AA000D8E7054801420DD10342F7D0F2E7000034
:100AB0000000FF07AC4E00000000F07F0000E0FFE8
:100AC0000000F87F114859400143C0124140002006
:100AD000C0E70123089A9B069A4205DC03225207CD
:100AE0008918C90FC907B5E7052252078918074AAF
:100AF0001143D2125140ADE770B515461C4602466F
:100B00000B4628462146FFF7DFFD70BDFFFFFF7F44
:100B10001F22030C02D10F22000402D0030E03D0C7
:100B200004E00020014670470002083A030F01D19B
:100B30000001121F830F01D18000921E002801DBEB
:100B40004000521E120551184205C01241181046AD
:100B50007047C10FC90700D04042012292071143DC
:100B6000D6E701218907D3E7F0B58B4C0F0925465D
:100B700089B0BD437BD01D092646AE43FAD00E4650
:100B80005E402740F60F3E43254071D024012142AC
:100B9000FBD0FF24AD19A4042D1B039501252D05C1
:100BA000DB02DB0AC9022B43C90A29431E010901E2
:100BB000040F130F050121431701880B8203914392
:100BC0002D098C46A90B1E438A039543B30B9A0348
:100BD00096433F09BA0B9403A74302962E467E43E1
:100BE0000497B6464E19D7190C46019654430597FB
:100BF0007E43371B7646BF1B3601B646BE0B361901
:100C000000967646BC043719009C01D3641C0094FE
:100C10006400002F01D001263443029E049F7543D7
:100C200066467E430496760034196E0034190094AB
:100C3000029C019E1C196643751BAE4606946546D0
:100C40004519059C05956C43594375460891691AE9
:100C50000191049E01465143A41B0491611A009C1A
:100C60000791E10605D061090122114302E072E01B
:100C70006EE06109089D00272C0A2D066918049D65
:100C80007C412A0A2D066918019D6241AC0DAD0216
:100C90006D185441079A910D920255196141029ABB
:100CA000644658435443069B059A5A43121A131B31
:100CB0009A0E9B015B187A41010B0005C318514144
:100CC000220A200644195A419A4200D2491C0120A6
:100CD0004002814203D315230226F64302E0142387
:100CE0000326F6432020C51AA9401746AF40DA4034
:100CF0000A4320460399D84009147318190551185E
:100D0000039A3843D2075140AC4009D001229440A5
:100D100006D30022401C5141002C01D14008400064
:100D20001E4A934212D3012203989206904207DB97
:100D30000520400709181A480143C012414004E049
:100D4000032040070818C10FC907002009B0F0BDF3
:100D50000020F107FAE705180C464C4111486D4296
:100D6000A04115D394181A465A410E486442904146
:100D70000ED301204A004005824209D35A00824224
:100D800006D35940C90F084AC90700201143DDE7BF
:100D900000200649DAE700000000FF07FE07000018
:100DA000FFFFFF7F0000E0FF0000F07F0000F87F02
:100DB0000121C9050123411842001B06D3185B0E0F
:100DC0000AD0C1100722D206891840075242D142E8
:100DD00001D5520089187047090208D50146002A3A
:100DE00003D0C10FC9070020704710467047420268
:100DF00002D0002002497047072109050143F4E7AA
:100E00000000F87FF0B5FF252D04C609C209FF27B1
:100E100004462E400137CB093E4348402A402B4030
:100E20000746002A6BD0002B69D0AA4267D0AB429C
:100E300065D0002800DA32460125ED0529432C4310
:100E400009022002090AD21A4B0C7F24E31A434CF0
:100E5000000A7C44E35C7D242404121914145B0012
:100E6000A218884201D3521C00E0400049420C46BF
:100E70005C4324115C43DB016415E318040A5C4302
:100E8000C502200D0C4644436419250A5D43230323
:100E9000EC0C0D46654300030019EB184C42A342CD
:100EA00001D35B18401CD4052018002B07D05B0031
:100EB000C91804D3401C002901D1400840003F213B
:100EC00089048A4209D3002A08DC1106090F04D0DC
:100ED000032149074018C00FC007F0BD012241009F
:100EE000120689187F2252069142F6D2052149073F
:100EF000C84201D59010F0BDFF20C005F0BD002F05
:100F000000DA32461648AA4207D2AB4205D219028D
:100F1000090E17D0F80FC007F0BDFF2563002D069E
:100F2000AB42F9D84900A942F6D8AB4201D1A94257
:100F3000F2D0A94201D1002101E061004908D005A9
:100F40000843F0BD1102090EFBD0FF200243D0057B
:100F5000F0BD0A460146104654E700000A4800006A
:100F60000000C07F1F22030C02D10F2200041CD0FE
:100F7000030E01D10002083A030F01D10001121F34
:100F8000830F01D18000921E002801DB4000521E19
:100F9000D2055118021251181922904004D3491C4D
:100FA000002801D14908490008467047C10FC90708
:100FB00000D04042012292071143D3E70121890763
:100FC000D0E710B500F082F8006810BD10B50446F7
:100FD00000F07CF8046010BDFFB504460D4681B0FA
:100FE000243000902168880604D51022E0699143DE
:100FF000216000E00120A84201DD471B00E000273E
:101000000498A1697A191018081AA0612078C006FE
:1010100002D42046C046C046002608E00398626815
:10102000A168805D9047206A401C761C206204986D
:101030008642F3DB2078C0060AD52046C046C0466B
:1010400006E06268A16830209047206A401C206258
:1010500038467F1E0028F4DC07E000986268A1682B
:10106000405D9047206A401C206228466D1E002883
:10107000F3DC2046C046C0462078000602D5022098
:1010800005B0F0BD0120FBE710B5FF22C30D1340F2
:1010900009D05A4007D0914205DA5C42A14202DDF4
:1010A000C905081810BDC40FE407002B06D0002A9C
:1010B00006D0002902DBFF20C0050443204610BDF6
:1010C0004102FCD0004810BD0000C07F00487047BE
:1010D0001000002010B5FF231B0644009C421DD8C1
:1010E0004C009C421AD80346124A0B4307D4401ABC
:1010F00002D3EFF3008010BDEFF3008010BD081A9B
:1011000003D3EFF30080904305E0EFF3008001216B
:101110009043C907084380F3008810BD0D231B04CA
:101120001A4204D01146002000F031F810BD00F042
:1011300045F810BD000000900048704710000020E6
:101140007546FFF7F9FFAE46050069465346C008ED
:10115000C000854618B020B5FFF72AF860BCB64637
:1011600000260027C0C5C0C5C0C5C0C5C0C5C0C514
:10117000C0C5C0C5403D490849008D46704710B5FF
:101180000446C046C0462046FEF7E5FF10BDC80233
:1011900012D54803400F002804D0C803C0430121E2
:1011A00088407047EFF30080000100090321090720
:1011B000084380F3008870470020704710B502484C
:1011C00000F004F810BD00000000C07F10B50C4610
:1011D0001107090F092904D00A290AD008290CD1BE
:1011E00004E011460820FFF7D2FF06E0510606D5BD
:1011F00001E0510601D50120C007214610BDD106EE
:1012000007D501010909CC084907000E000604436F
:1012100009E0410F20024907000A0143200E0006A1
:101220001D22D14101430846E7E70000014918208B
:10123000ABBEFEE72600020070470000F0B585B0A7
:101240000190F74F012638463146324600F09FFBA9
:10125000022400223846214600F099FB04A982208E
:10126000087004200090EF4802AD07232A4601F0E1
:10127000F5F938462146324600F089FB68790009C5
:10128000AA79110108181A49120600D540184423FA
:10129000E54AD052EB781B092C792601F618230673
:1012A00000D576184223D6526B781B09AC782501FD
:1012B000ED18230600D56D1840215552FFF776FE34
:1012C0007521CF05394604F0ABF8019CA06030468B
:1012D000FFF76CFE394604F0A3F860602846FFF77C
:1012E00065FE394604F09CF8206005B0F0BDC046AC
:1012F00000F0FFFFF0B58BB0C94E012530462946FE
:101300002A4600F044FB0227002430463946224694
:1013100000F03DFB08AE0320049070700F20039096
:101320003070C0480423079331463A4601F08AF8EA
:10133000BB4839462A46059500F029FBB84839468E
:10134000224600F024FB0C207070102002903070B8
:10135000B44831463A46079B01F074F8B048394624
:101360002A4600F014FBAE48054639460697224649
:1013700000F00DFB09A98020087007980090A9488B
:1013800032463B4601F06AF97078A74F387028461C
:10139000069D2946059A00F0FAFA6420019000F0B3
:1013A000FDF99F482946059D2A4600F0F0FA9C4821
:1013B0002946224600F0EBFA747003983070994881
:1013C0003146069A079B01F03DF8954829462A4682
:1013D00000F0DDFA92482946224600F0D8FA049837
:1013E0007070029830708F483146069A079B01F062
:1013F00029F88B4829462A4600F0C9FA8848294628
:10140000224600F0C4FA0AA98F20087007980090BD
:1014100084483246069B01F021F970787870804844
:1014200029462A4600F0B3FA019800F0B7F9384689
:10143000103000F05FF83869F96903F081FF054664
:10144000F8617869396A03F07BFF06463862B8694B
:10145000796A03F075FF7862611C1A4A94420C465F
:10146000E5D3734900240C701749FFF7CBFCF860F3
:101470003046154E3146FFF7C5FCB8602846314668
:10148000FFF7C0FC7860384628302421FEF72DFF96
:10149000FC663C677C670D480462446284620C49C8
:1014A000F96439657965BC65FC653C667C66BC663B
:1014B000016041608160C460046144618461C46111
:1014C0000BB0F0BD2F7500000060EA46F403002069
:1014D000295C8F3D80B5034800F0CFF8024800F04A
:1014E000CCF880BD480100208C010020EFF3108073
:1014F00072B6FEE7F0B587B00390494F0221012490
:101500003846224600F043FA00223846214602922D
:1015100000F03DFA06A9822008700420009041489E
:1015200004AE072532462B4601F098F8384621468E
:10153000224600F02CFA3C4F38464630711C0622F9
:10154000FEF774FE4620385EFFF730FD374903F0A2
:1015500067FFED06294603F063FF796803F0C4FFD7
:10156000044633480078002803D003980460029EA4
:101570000FE0204603F06BF87F21C90503F086FDDC
:10158000002800D1044603980460294800784642A8
:1015900046414820385EFFF709FD244903F040FF2B
:1015A000294603F03DFFB96803F09EFF0446002E74
:1015B00008D0204603F04BF87F21C90503F066FDF3
:1015C000002802D00398446002E00020039948609C
:1015D0004A20385EFFF7EAFC144903F021FF294650
:1015E00003F01EFFF96803F07FFF044610480078FF
:1015F000002803D00398846007B0F0BD204603F0B4
:1016000026F87F21C90503F041FD0028039E02D082
:10161000B46007B0F0BD0020B06007B0F0BDC046B8
:1016200000040048EC010020A80000200000FA445B
:101630000C000020B0B52121415C022918D10146DF
:101640002031026813680E24A34313601368012538
:10165000AB431360C26B036C2C469C405460002467
:101660000C704D70416B002900D088472046B0BDFA
:101670000421816301242046B0BDF0B581B0C16B67
:10168000046C00910D6802681668730713D5042175
:101690000F46A7403B462B400DD013689B0602D453
:1016A00013688B43136000994F60C16A002935D0DD
:1016B000884701B0F0BD03462033B10717D5022794
:1016C000A7403946294012D01168890605D411680F
:1016D0000A24A14311600121597000211970009959
:1016E0004F60816A002919D0884701B0F0BD3107E9
:1016F00014D50821A140294010D011680E25A94316
:10170000116001210A46A240009C626081630022B0
:101710001A705970016B002900D0884701B0F0BDE4
:10172000F0B585B000282FD00446064620360220AA
:101730007070A2CC236860680190A0680290E06895
:101740000390206904900868114A02402A433A43F2
:101750001A430198024302980243039802430498F3
:1017600002430A600025E5620A48206335700A4892
:101770000C3C0818142103F067FB80002064012052
:101780007070284605B0F0BD0125284605B0F0BDB3
:101790000FC0FFFF00000240F8FFFDBFB0B50446D8
:1017A00000F0FEF80546601C02D09A480078041943
:1017B00000F0F6F8401BA042FAD3B0BDF0B58EB0F1
:1017C0000A68002A00D1D1E005466948854201D067
:1017D000052000E0032000900124002603940C96CD
:1017E0000B960A91099511E01043079E614AD0605B
:1017F0000A681046E040361D641C0C9B9B1C0C9331
:101800000B9B5B1C0B93002800D1AFE0631E039879
:10181000089398400240EBD007964D6803272B466B
:101820003B405E1E012E02920195049417D80327B7
:101830000C9CA740099A9168B9430A9EF668A64095
:101840000E439660E906C90F089EB140566886436C
:101850000E4356600A99FD430B9844000BE038464E
:101860000C9CA040C543032B05D106950C98059010
:101870003B46099F21E0099FF86828408E68A640F2
:101880000643FE60022B0695059416D11C20079C8A
:1018900020400F218140089BDB089B00FB181E6A3B
:1018A0008E430A990F698740374326461F62099F76
:1018B0000A98416803230B4001E0079E0199049CAC
:1018C0000598834038683D46069F38401843286095
:1018D0008803800F0A998BD0594A10680121084368
:1018E0001060106808400D900C2333400F269E4076
:1018F0000320089F87430D981F4AB858B043BE186D
:101900000927FF06099ABA42099D09D01B4A954248
:1019100007D01B498D420099029A03D1022101E0B0
:101920000021029A994001433160124800680A99E7
:101930004E68F30301D5104300E090430D4B18604F
:101940005868B30301D5104300E09043094B586039
:101950009868F30201D5104300E09043054B98606E
:10196000D868B30200D53FE790433EE70EB0F0BD24
:10197000000C004800040140080001400004004839
:101980000008004800690840411E88417047002A4D
:1019900002D01822815070472822815070470000E1
:1019A000054800687047C0461A48007802490A682E
:1019B000101808607047C0462004002080B5CA484F
:1019C000016810220A430260032000F005F800F0CD
:1019D00023F8002080BDC04670B504467D20C000BD
:1019E0000C4E317803F030FA0146C748006803F026
:1019F0002BFA00F0A3FF0125032C08D8002806D1FC
:101A00000025E84321462A4600F028F8746028465D
:101A100070BDC0460000002082B009480168012264
:101A20001143016001681140019101991107426859
:101A30000A434260406808400090009802B0704736
:101A400018100240002805D41F21084001218140C0
:101A5000014801607047C04600E100E0002805D45D
:101A60000322034693430C4A9A1806E00F220240D1
:101A7000083A03239A43074BD2188007C00E890106
:101A8000C9B28140FF238340106898430843106027
:101A90007047C0461CED00E000E400E0F0B585B002
:101AA00004468078C0073C4B36D0012002900107E5
:101AB0001A1F10680840039006D110680843106090
:101AC000106808400490049800920191334E3068E9
:101AD000C00536D5032528022F4B1968014012D0C6
:101AE0006268024091420ED00298000419681A6898
:101AF00002431A601A6882431A600846284A104056
:101B00001860C8073AD11868254908406168014340
:101B100019600398002828D02068C10705D01969EA
:101B200003229143A2680A431A610025800605D565
:101B3000186910218843E16801431961284605B0FE
:101B4000F0BD02980702306838433060FFF728FF85
:101B5000054630683842BDD1FFF722FF401B64289C
:101B6000F7D90325284605B0F0BD009A1068019901
:101B7000884310602068C107D1D1D6E7FFF710FF76
:101B800006465A4F044B18688007BCD4FFF708FF7D
:101B9000801BB842F6D9D1E7201002400070004007
:101BA000FFFCFFFFF0B581B0002850D004464E4A3C
:101BB0001368012003408B4208D213680126B34307
:101BC0000B431360126832408A4241D10091216870
:101BD0008A070ED54A0705D5072212025D4D2B68EC
:101BE00013432B605B4D2A68F0239A43A368134389
:101BF0002B60C9072FD13C49086801263040009A64
:101C0000904205D90868B04308600868C0071FD132
:101C10002078400707D5072000024E4A116881430B
:101C2000E068084310604B4801680C220A404A48AB
:101C3000042A3DD0082A3DD18A02120F474B9C5CF2
:101C4000444A926AC90337D4464844433BE00126DC
:101C5000304601B0F0BD61683E4A121F022906D02D
:101C6000012909D1126892030646F1D508E01268ED
:101C700092010646ECD503E0126892070646E7D5C6
:101C8000344A10680326B04308431060FFF788FE0B
:101C90000746164D2F4800680C21014060688000FF
:101CA0008142A8D0FFF77CFEC01BA842F2D9CFE743
:101CB000044608E02C4C06E00F210A402849895CC4
:101CC00003F0C2F84443234800680006000F0849A7
:101CD000085CC4400C4804600320FFF77DFE00262A
:101CE000304601B0F0BDC04600200240881300001D
:101CF000A056000804480068164909684905490FBC
:101D0000024A515CC840704708000020B0560008E5
:101D100010B510490A680C2313400F48042B0BD050
:101D2000082B0AD193021B0F0C4CE45C896AD20386
:101D300006D40C484443204610BD0B4C204610BD31
:101D40000F221140064A515C03F07EF844432046BE
:101D500010BDC04604100240001BB700B856000872
:101D6000C856000800093D0000127A00F0B587B09F
:101D700004460120002C00D1E1E104902078C00746
:101D8000F04E059411D071680C200140042906D052
:101D900071680140082939D17068C00336D53068B0
:101DA000800302D56068002844D0207880075BD586
:101DB00070680007800F1DD070680C210140082951
:101DC00002D17068C00315D53068059CE168002910
:101DD00033D0012108433060FFF7E2FD054630684B
:101DE00080073AD4FFF7DCFD401B0228F7D9032017
:101DF00007B0F0BD30688007059A02D5D068012889
:101E000018D13068F821884311692AE061680120FF
:101E10004704002900D1FAE0052900D10EE101298B
:101E200000D10FE1010432688A43326081043068D6
:101E300088430AE1049807B0F0BD0121884330606F
:101E4000FFF7AEFD0546306880070DD5FFF7A8FD0A
:101E5000411B03200229F6D971E13068F82188433B
:101E60002169C90001433160059C2078000727D40F
:101E70002078400700D48EE0012003900107F0692C
:101E80000840029006D1F0690843F061F06908400B
:101E9000069006980191AC4F3868C00536D5059874
:101EA0008068AA4F002843D0052856D0012858D072
:101EB000306A039988433062306A0421884353E0D2
:101EC000706AE169002910D0012108437062FFF7B0
:101ED00067FD0546706A8007CAD4FFF761FD401BA5
:101EE0000228F7D9032007B0F0BD012188437062B2
:101EF000FFF756FD0546706A8007B9D5FFF750FD1C
:101F0000401B0228F7D9032007B0F0BD0398040254
:101F1000386820433860FFF743FD054638682042A3
:101F2000BDD1FFF73DFD411B03206429F6D906E131
:101F3000306A039988433062306A042188433062F2
:101F4000FFF72EFD0546306A80071CD5FFF728FDF8
:101F5000411B0320B942F6D9F1E0306A0421014364
:101F60003162306A039908433062FFF719FD054674
:101F7000306A800707D4FFF713FD401BB842F7D93A
:101F8000032007B0F0BD02980028059C03D1F0693A
:101F900001998843F0612078C0066ED5059A506992
:101FA000411D16D001281DD1706B042101437163BE
:101FB000706B012101437163FFF7F2FC0546706B02
:101FC000800752D4FFF7ECFC411B03200229F6D90D
:101FD000B5E0706B042188437063706BF82188430F
:101FE000916947E0706B042101437163706B0121BB
:101FF00088437063FFF7D4FC0546706B80073CD5BF
:10200000FFF7CEFC411B03200229F6D997E001041B
:1020100032688A4332608004316881433160FFF75F
:10202000BFFC0546059C3068384200D1BDE6FFF78D
:10203000B7FC411B03206429F5D980E08104326894
:102040000A4332600104306808433060FFF7A8FC9F
:1020500005463068384200D0A7E6FFF7A1FC401BD8
:102060006428F6D9032007B0F0BD706BF8218843CF
:1020700005998969C900014371630598046A002CB8
:102080001AD070680C210140082918D1012C04983D
:1020900055D00120030471680B40F26A059D6C6AFB
:1020A000A3424CD10F231A40EC6AA24247D19A04B2
:1020B0001140AA6A914242D1002007B0F0BD012030
:1020C000020631680492914331604706FFF768FCCD
:1020D0000546022C0AD1049C3068384210D0FFF724
:1020E0005FFC411B03200229F6D928E03068384202
:1020F000E2D0FFF755FC411B03200229F6D91EE070
:10210000F06A0F218843059AD16A0143F1623D20AC
:10211000000471688143906A0843516A0143716009
:10212000306820433060FFF73BFC0446306838429B
:10213000C2D1FFF735FC011B03200229F6D907B0F5
:10214000F0BDC0460010024000700040881300003F
:1021500070470000F0B583B00446006841688368AA
:10216000012240251F462F404E0609D51E46164027
:1021700006D0002F04D1E16C2046884703B0F0BDA3
:102180000E0607D502261E4004D0216D2046884742
:1021900003B0F0BD8E0666D51602019660361E406D
:1021A00061D0002F17D05D26A65D032E08D1002137
:1021B0000291C168029180680290029803B0F0BD5C
:1021C000266E04273743276600260296C6680296C5
:1021D00086680296029E20261E40019F1F40002E08
:1021E0000AD0236E1343236600230293836802936D
:1021F0000368AB430360029B002F08D0236E0826C0
:102200001E4326660023029383680293029B236E7B
:10221000002B28D04368E026B34343605D23E2549B
:1022200089071DD04168032291434160A06D0028B9
:1022300008D00E494163FFF7FDF9002802D0206E57
:1022400028432066606D00280DD008494163FFF7E0
:10225000F1F9002807D0206E2843206603B0F0BDB6
:102260002046FFF775FF03B0F0BDC04629400008C7
:10227000F0B585B000280CD0044605465C354120F9
:102280008600606A002807D00020206120461430B4
:1022900007E0012005B0F0BD6068B04203D02046E1
:1022A0001C30002101600027A7626878002804D153
:1022B00000202870204600F057F802200495019075
:1022C0006870206801684022914303900160E168D2
:1022D000E14A012591422A4600D33A461203ED0213
:1022E0000D430F2738020290854201D00025A562D8
:1022F0006568A768354021239B023B405B1925692F
:10230000019805401D436069012318402843FC36AD
:10231000A7693E400643E069382505403543206AF9
:10232000802606402E435803A56A05403543039E88
:102330003560380C04250540029801400A432A43C1
:10234000606A102101401143606B082202400A4379
:102350007260D802F1698143F1610020206604991E
:102360004B7005B0F0BDC046F0B587B004460026FE
:102370000696059604960396029600682C498842B4
:1023800001D007B0F0BD012001032A4A53680B4376
:10239000536053680B400193019940041168014355
:1023A0001160116801400191069603200590049682
:1023B00002200390E020029001980920C00602A9A3
:1023C000FFF7FCF91C4D80201C4F2F606E60AE6043
:1023D0000090E8602E616E61AE61EE612846FFF705
:1023E0009FF9002801D0FFF781F86C62A565144DB4
:1023F000102014372F606860AE600098E8602E618E
:102400006E61AE61EE612846FFF78AF9002801D0BF
:10241000FFF76CF86C6265651924002120460A46B6
:10242000FFF71CFB2046FFF70DFB07B0F0BDC046D1
:102430000030014014100240480100201C000240FE
:102440008C010020F0B587B004465C20205C012898
:1024500003D10227384607B0F0BD15460591039316
:102460002746443701263E76FFF79AFA394602900E
:10247000787E012877D1059800283746324600D16A
:10248000E1E0002D174600D1DDE0049203274F76EE
:1024900000202066E587A587059AA263206408804E
:1024A000E064206501910090488020680121CA0302
:1024B000A368934207D1026840239A4302608903CC
:1024C00002680A43026001684906039E03D401685A
:1024D00040220A43026061684A424A416B1E5942E7
:1024E00059411143E2685C4B9A423FD3002907D01F
:1024F000059A1188C160911CA163E18F491EE18793
:10250000E18F0029029D70D0711C1AD08168890763
:1025100006D4FFF745FA049A401BB04208D398E06E
:10252000A16B0A88C260881CA063E08F401EE08710
:10253000E08F002859D0206881688907E9D5EFE746
:1025400020688168890702D4FFF72AFA07E0A16BA7
:102550000A88C260881CA063E08F401EE087E08F7D
:102560000028EDD141E0022732466CE0002908D076
:10257000059909780173A06B401CA063E08F401E91
:10258000E087E08F0028029D2FD0701C0CD11CE04A
:10259000A16B09780173A06B401CA063E08F401E03
:1025A000E087E08F002820D0206881688907EFD479
:1025B000FFF7F6F9049A401BB042F2D3019942E0CA
:1025C000FFF7EEF9E08F00280FD0206881688907B7
:1025D000F6D5A16B09780173A06B401CA063E08F56
:1025E000401EE087E08F0028EFD12F460325E90247
:1025F000204632463B4601F021FD00280ED1204600
:1026000031463A4601F0A8FD002807D1690220466C
:1026100032463B4601F012FD002804D0206E2021F6
:10262000084320662166A068002807D1009806901C
:102630002068C1680691806806900698276E781E0B
:1026400087410199049A002008764A76384607B0F7
:10265000F0BD0199F7E7C04601070000F0B585B06D
:1026600004465C20205C012802D1022005B0F0BDA8
:102670001D46029203912746443701263E76FFF716
:102680008FF932460646797E012900D0ABE00398E7
:102690000028104600D148E102980028104600D1D9
:1026A00043E1002D104600D13FE10192787E0428DD
:1026B00001D005207876002323667D80E587E168D8
:1026C0009D4A012000919142024600D31A46049689
:1026D00016030103206842688A43911941600299F8
:1026E00021643D800399A163E3642365A5870168A4
:1026F000490603D4016840220A4302600A9E6168C9
:102700004A424A41691E4B424B41134300998A4A4F
:10271000914279D3002B07D0039A1188C160901C95
:10272000A063E08F401EE0870125701C32D101E0DC
:10273000FFF736F9E08F002803D17888002800D110
:10274000CFE02068816889070DD5E18F012D0AD17E
:10275000002908D0A16B0A88C260891CA163E18F9F
:10276000491EE18700258168C907E1D079880029E1
:10277000DED0216CC0680880881C20647888401EE8
:1027800078800125D4E7FFF70BF90499401AB0428D
:1027900000D3C8E0E08F002803D17888002800D15A
:1027A0009FE02068816889070DD5E18F012D0AD14E
:1027B000002908D0A16B0A88C260891CA163E18F3F
:1027C000491EE18700258168C907DCD07988002986
:1027D000D9D0216CC0680880881C20647888401E8D
:1027E00078800125CFE701924120820063680220B2
:1027F000934200D098E0042900D095E0A168002918
:10280000019A00D143E790E0002B08D003990978A2
:102810000173A06B401CA063E08F401EE087012580
:10282000701C33D101E0FFF7BBF8E08F002802D124
:102830007888002855D02068816889070FD5E18FF6
:10284000012D0CD100290AD0A16B09780173A06B6E
:10285000401CA063E08F401EE0872068002581684F
:10286000C907E0D079880029DDD0007B216C087091
:10287000206C401C20647888401E78800125D2E7B7
:10288000FFF78EF80499401AB0424CD2E08F00282E
:1028900002D17888002824D02068816889070FD564
:1028A000E18F012D0CD100290AD0A16B09780173A9
:1028B000A06B401CA063E08F401EE08720680025CD
:1028C0008168C907DCD079880029D9D0007B216CC8
:1028D0000870206C401C20647888401E7880012598
:1028E000CEE703200390C10220463246049D2B46CA
:1028F00001F0A4FB00280FD1204631462A4601F002
:102900002BFC002808D103984102204632462B4672
:1029100001F094FB00280DD0206E20210843206692
:102920002166012000E00320019A002139767A76A1
:1029300005B0F0BD0020F7E701070000401E010EC2
:1029400001D0012070470749074A506007480368D3
:102950000B4003218907591801600020906007216E
:1029600011607047FFFFFF0010E000E020ED00E085
:102970007047704770B53C22825C012A01D1022069
:1029800070BD03463C3300221A703F231B02CC6803
:102990009C430F239D028E68AE432643DB024C68A6
:1029A0009C43344307231B030D689D4325430323A6
:1029B0005B030C699C432C434B6923430124A40310
:1029C000A343C969194300684164104670BD000003
:1029D000B0B53C22825C012A01D10220B0BD024682
:1029E0003C32022353700123137000684468702541
:1029F000AC430D68254384684560854DA84202D0EC
:102A0000844DA84204D18025AC43496821438160AC
:102A1000002010705370B0BDB0B5002824D004461B
:102A200005463C356878002804D1002028702046EF
:102A300000F050F8022068702068036874498842EA
:102A400002D0744A904211D170229343A2681A4373
:102A5000484B98420EDD884212D01D4B98420FD051
:102A6000454B98420CD031E00120B0BD1A46414B95
:102A70009842F0DC674B984202D0404B984225D1F7
:102A800003231B029A432369134380229343A269C1
:102A90001A430260E268C26262688262884205D0BC
:102AA0000B49884202D03449884201D161690163EF
:102AB00001214161A972A970E97029716971A97137
:102AC000E9712972697269700020B0BD1346DCE7B4
:102AD0000048014010B582B00068264988420DDCEC
:102AE0004C4988421CD02549884240D1012000022F
:102AF00023494A6802434A6049680CE01E498842FB
:102B000022D04349884232D10120C0021C490A68C0
:102B100002430A60096801400191019802B010BDAA
:102B200017484168022211434160406810400190FB
:102B300001981024002120460A46FEF78FFF204608
:102B4000FEF780FF02B010BD012040040C490A6866
:102B500002430A600968014001910198152400218F
:102B600020460A46FEF77AFF2046FEF76BFF02B0CA
:102B700010BDC046FF2B0140004401400020004032
:102B8000181002403D21415C012915D101463D311B
:102B900002220A7001681E48814202D01D4881420B
:102BA0000CD18868072202400020062A0BD00A6850
:102BB000012313430B60704701207047086801220E
:102BC00002430A60002070473D21415C012918D171
:102BD00001463D3102220A700168C8680122104393
:102BE000C8600B48814202D00A4881420BD18868F4
:102BF000072303400020062B09D00B6813430B600A
:102C00007047012070470868104308600020704733
:102C1000002C014000040040F0B53C22825C012AF7
:102C200001D10220F0BD02463C3202235370012341
:102C300013704F4F3C46773C0568A8682040A86059
:102C40000E6800244F2E1FDC1F2E35DD202E37D0BE
:102C5000302E35D0402E00D086E0286A2E6A01271B
:102C6000BE432E62AE69F027BE43CF683F013743B3
:102C7000AF610A26B043496801432962A868472129
:102C80000143302081436AE06F2E24DD58038642E1
:102C900042D01803864220461AD0702E64D1A8680C
:102CA00038404E688F68C968374309023943014389
:102CB000A960A86877213BE0002E01D0102E53D1E7
:102CC000A86870218843064307203043A860204647
:102CD00014705370F0BD502E2CD0602E44D11020B3
:102CE000C0432E6A06402E620F263603AF69B743F3
:102CF000CE6836033E432F6AAE61A026B7434968CB
:102D0000090139432962A96867260E430640AE606F
:102D1000204614705370F0BDA86838404E688F6824
:102D2000C9683743090239430143A9609803A96878
:102D3000014314E0286A2E6A9E432E62AE69F02792
:102D4000BE43CF683F013743AF610A26B0434968AD
:102D500001432962A8685721014320208143A960CB
:102D6000204614705370F0BD184614705370F0BDB7
:102D7000FF00FFFF7047B0B504468020C5432068C0
:102D80000169890717D5C168890714D529467E319D
:102D90000161012121778069800703D02046FFF778
:102DA000E9FF05E0204600F08AF8204600F01DFA11
:102DB0000020207720680169490718D5C1684907B4
:102DC00015D529467C310161022121778069800572
:102DD000800F03D02046FFF7CDFF05E0204600F02E
:102DE0006EF8204600F001FA002020772068016983
:102DF000090717D5C168090714D52946783101613B
:102E000004212177C069800703D02046FFF7B2FF75
:102E100005E0204600F053F8204600F0E6F90020D7
:102E2000207720680169C90618D5C168C90615D57B
:102E300029467031016108212177C0698005800F22
:102E400003D02046FFF796FF05E0204600F037F854
:102E5000204600F0CAF90020207720680169C907E0
:102E600009D0C168C90706D029467F3101612046D3
:102E700000F020FA20680169090607D5C168090633
:102E800004D505612046FFF773FD206801694906F6
:102E900009D5C168490606D5294640310161204659
:102EA00000F009FA20680169890607D5C16889061A
:102EB00004D5603505612046FFF75BFDB0BD704766
:102EC000F0B582B03C23C35C012B03D1022318462A
:102ED00002B0F0BD04463C34012323700225EA41D0
:102EE000032A00D919E1C0467A4412795200974466
:102EF000012339500268106A012398431062106A56
:102F0000A8438E68064350680F689569E84B9A425B
:102F1000019706D0E34B9A4203D0E34B9A4200D08C
:102F2000D0E00C239E43CB680427BB433343E04EE1
:102F3000B24200D0CAE0CFE00268106A1023984382
:102F40001062136A20208343886800011843566882
:102F50000B6801939369D64DAA4236D00746AA4220
:102F60003DD142E001231D020268106AA8431062AD
:102F70005802136A834388680002184356680B6836
:102F80000193D569CA4B9A424FD007469A4258D10D
:102F90005DE001231D030268106AA8431062156AF0
:102FA00050688E6801960E680096D769C04EB2428E
:102FB00005D0BC4EB24202D0BB4EB24264D19E0399
:102FC000B0434E69B60106435FE0C027B843CF68FF
:102FD0003F014025AF43B64D0743AA4205D0B14853
:102FE000824202D0B048824208D103208002864348
:102FF00048698D6980003043AE00064310461830A2
:10300000566073252D02AB43019D2D021D43956132
:103010004B68936317620123DD0296692E43966124
:103020009B0295699D43956149E00327BF02B84320
:103030003C4BFF3BCF683F021F409D4B07439A42EA
:1030400005D09848824202D09748824208D1032096
:103050000003864348698B69000130431E01064323
:1030600010461C30566073239D43019B1D43D56160
:103070004B68D3631762D36908251D43D561D369B3
:103080000425AB43D36143E0064610461C3056602E
:1030900073263602B743009E36023E43D6614E6821
:1030A00016645E03B543019E36032E431662DD02AD
:1030B000D6692E43D6619B02D5699D43D5610969C6
:1030C000090226E033467A4EB24205D0754EB2422E
:1030D00002D0754EB24207D103263602B0434E6984
:1030E0008F6906433E4300E00646019F10461830B4
:1030F00056607326B5433D4395614D685563136231
:10310000936908251D43956193690425AB43936139
:10311000096902680A4302600023002020701846F3
:1031200002B0F0BDFFFBFFFFB0B5002824D004467D
:1031300005463C356878002804D1002028702046D8
:1031400000F052F8022068702068036858498842ED
:1031500002D0564A904211D170229343A2681A437A
:103160001F4B98420EDD884212D04E4B98420FD032
:103170004D4B98420CD031E00120B0BD1A46184B9F
:103180009842F0DC494B984202D0164B984225D128
:1031900003231B029A432369134380229343A269AA
:1031A0001A430260E268C26262688262884205D0A5
:1031B0003C49884202D03C49884201D1616901639F
:1031C00001214161A972A970E97029716971A97120
:1031D000E9712972697269700020B0BD1346DCE79D
:1031E000FF2B0140002000407047704702463E32EE
:1031F000002908D008290CD0042910D1531C1B78B1
:10320000012B0AD10FE01378012B06D10223137092
:1032100013E0931C1B78012B05D001207047D31CB1
:103220001B78012BF9D10223082903D0042903D1EB
:10323000537002E0937000E0D3701F22114001220E
:1032400013468B400168086A98430862086A18436D
:1032500008621348814206DC1448814215D01448A4
:10326000814206D00CE00F48814202D00E488142D4
:1032700006D1D0034B6C03434B640D48814204D00C
:10328000086810430860002005E0886807230340B1
:103290000020062B00D170470B6813430B6070476A
:1032A000FF43014000480140004401400004004049
:1032B000002C014070477047F0B583B0002840D023
:1032C000044607467437806F002804D10020387008
:1032D000204600F057F82420A067206801680125E7
:1032E000A9430160204601F0A3F8012826D0606AB6
:1032F000002802D0204601F031F80126F0022168B2
:103300004A6882434A608868082290438860086857
:10331000304308600025FD60FEF742FB034620684D
:103320000168090713D51648009071050022204650
:10333000029301F005F9002807D00325284603B0C1
:10334000F0BD0125284603B0F0BD2068029B00684F
:1033500040070CD50A480090B1050022204601F034
:10336000EFF8002803D00325284603B0F0BD202045
:10337000A067E0673D702566284603B0F0BDC046F3
:10338000FFFFFF0110B586B0002105910491039164
:10339000029101910068134A904201D006B010BD1D
:1033A00011484268012305939C032243426042680E
:1033B00022400092009A5A04036813430360006895
:1033C00010400090032004900391022002900C20F2
:1033D00001900920C006009901A9FEF7EFF906B097
:1033E00010BDC0460038014014100240FEE7000046
:1033F000F0B585B001246103CF48002700913A461B
:10340000FEF7C5FACD4D28680490281F019000688A
:10341000049903917D21C900461C7000029101F0BE
:1034200013FD06E0049A891A049A0392CF19B84250
:1034300008D929680491039A049B03999A42F1D20E
:103440008919EFE721030027BB483A46FEF79FFAA8
:10345000286804900198006804990391441C600056
:10346000029901F0F1FC06E0049A891A049A039289
:10347000CF19B84208D929680491039A049B03998B
:103480009A42F1D20919EFE70122EE480099FEF7BE
:103490007EFA286804900198006804990391441CFE
:1034A0006000029901F0D0FC002106E0049BD21AD2
:1034B000049B03935118884208D92A680492039BFD
:1034C000049E039AB342F1D21219EFE70027DD48B8
:1034D00000993A46FEF75BFA286804900198006864
:1034E00004990391441C6000029901F0ADFC06E0D0
:1034F000049A891A049A0392CF19B84208D9296804
:103500000491039A049B03999A42F1D20919EFE7B7
:1035100005B0F0BDF0B585B001277903C948002595
:1035200000912A46FEF733FAC74C20680490201F0A
:1035300001900068049903917D21C900461C700028
:10354000029101F081FC06E0049A891A049A039220
:103550004D19A84208D921680491039A049B039944
:103560009A42F1D28919EFE73903B6483A46FEF795
:103570000EFA206804900198006804990391451C94
:103580006800029901F060FC0021009F06E0049BA6
:10359000D21A049B03935118884208D922680492D6
:1035A000039B049E039AB342F1D25219EFE7012222
:1035B000EC483946FEF7EBF9206804900198006862
:1035C00004990391451C6800029901F03DFC00211B
:1035D00006E0049BD21A049B03935118884208D931
:1035E00022680492039B049E039AB342F1D25219BB
:1035F000EFE70025DB4839462A46FEF7C8F9206880
:1036000004900198006804990391461C7000029987
:1036100001F01AFC06E0049A891A049A03924D19E3
:10362000A84208D921680491039A049B03999A42FD
:10363000F1D28919EFE705B0F0BDC046F0B58BB007
:10364000019001242103C74E304603912246FEF724
:103650009EF96003089000240720C34F02940CE0F9
:1036600030460399FEF78EF9411E884107994900BB
:103670000C180699481E09064BD006900794304650
:103680000899029C2246FEF782F938680A90381F92
:10369000049000680A9909917D21C900451C6800C1
:1036A000059101F0D1FB214607E00A9BD21A26467C
:1036B0000A9B09935118884209D934463A680A92FC
:1036C000099B0A9E099AB342EFD25219EDE70122F3
:1036D00030460899FEF75BF938680A90049800684C
:1036E0000A990991441C6000059901F0ADFB002185
:1036F00006E00A9BD21A0A9B099351188842AFD957
:103700003A680A92099B0A9D099AAB42F1D21219B2
:10371000EFE7002230460899FEF739F901980028B2
:1037200004D0FFF765FEE0B20BB0F0BDFFF7F2FE8C
:10373000E0B20BB0F0BDC0460004004818E000E065
:10374000F0B587B0054601200090400302900720A5
:10375000D14C04E00199481E6D0009066BD0019020
:103760000026CC4802993246FEF711F920680690EF
:10377000201F03900068069905917D21C900471C10
:103780007800049101F060FB06E0069A891A069A17
:1037900005928E19B04208D921680691059A069BB8
:1037A00005999A42F1D2C919EFE700980103E8B2EE
:1037B000C209B848FEF7EBF8206806900398006845
:1037C00006990591461C7000049901F03DFB00210B
:1037D00006E0069BD21A069B05935118884208D929
:1037E00022680692059B069F059ABB42F1D2921968
:1037F000EFE70122F6480299FEF7C9F82068069023
:103800000398006806990591461C7000049901F020
:103810001BFB002106E0069BD21A069B059351185C
:10382000884297D922680692059B069F059ABB425B
:10383000F1D29219EFE70022E5480299FEF7A7F8C6
:1038400007B0F0BD0004004818E000E0F0B585B016
:1038500001242103DE4D284602912246FEF797F807
:10386000610328462246FEF792F8DA4F3868049042
:10387000381F00900068049903917D21C900461CFF
:103880007000019101F0E0FA002106E0049BD21AD9
:10389000049B03935118884208D93A680492039B09
:1038A000049D039AAB42F1D29219EFE7C84E30461D
:1038B000029D2946FEF766F800282DD030460026E6
:1038C00029463246FEF763F838680490009800688D
:1038D00004990391451C6800019901F0B5FA06E0CE
:1038E000049A891A049A03928E19B04208D9396849
:1038F0000491039A049B03999A42F1D24919EFE784
:10390000B34E3046029D2946FEF73CF8002807D00A
:103910000024204605B0F0BD0024204605B0F0BDCF
:103920003046002629463246FEF731F838680490C2
:103930000098006804990391451C6800019901F002
:1039400083FA06E0049A891A049A03928E19B04207
:10395000DFD939680491039A049B03999A42F1D202
:103960004919EFE70004004818E000E0F0B585B021
:10397000012461039648002700913A46FEF707F8B4
:10398000944E30680490301F0190006804990391B0
:103990007D21C900451C6800029101F055FA06E03E
:1039A000049A891A049A0392CF19B84208D9316847
:1039B0000491039A049B03999A42F1D24919EFE7C3
:1039C00027030024F04839462246FDF7E0FF30681F
:1039D00004900198006804990391451C68000299BD
:1039E00001F032FA06E0049A891A049A03920C193B
:1039F000A04208D931680491039A049B03999A4222
:103A0000F1D24919EFE70122DF480099FDF7BFFF26
:103A1000306804900198006804990391441C600088
:103A2000029901F011FA002106E0049BD21A049BCE
:103A300003935118884208D932680492039B049D6D
:103A4000039AAB42F1D21219EFE70122CE48394670
:103A5000FDF79DFF30680490019800680499039178
:103A6000441C6000029901F0EFF9002106E0049B7C
:103A7000D21A049B03935118884208D932680492E1
:103A8000039B049D039AAB42F1D21219EFE705B0F4
:103A9000F0BDC0460004004818E000E0F0B585B075
:103AA00001256903B848002700913A46FDF76FFFEA
:103AB000484C20680490201F0190006804990391ED
:103AC0007D21C900461C7000029101F0BDF906E09D
:103AD000049A891A049A0392CF19B84208D9216826
:103AE0000491039A049B03999A42F1D28919EFE752
:103AF0002F03A54839462A46FDF749FF2068049060
:103B00000198006804990391451C6800029901F02E
:103B10009BF9002106E0049BD21A049B03935118E1
:103B2000884208D922680492039B049E039AB342F8
:103B3000F1D25219EFE7012293480099FDF727FFD0
:103B4000206804900198006804990391451C68005E
:103B5000029901F079F9002106E0049BD21A049B36
:103B600003935118884208D922680492039B049E4B
:103B7000039AB342F1D25219EFE7834E30463946E9
:103B8000FDF700FF0025304600992A46FDF7FFFEAD
:103B9000206804900198006804990391461C700005
:103BA000029901F051F906E0049A891A049A0392E5
:103BB0004D19A84208D921680491039A049B0399DE
:103BC0009A42F1D28919EFE7002005B0F0BDC04656
:103BD0000004004818E000E070B514460D460646A3
:103BE000FFF734FE7600F0B2FFF7AAFDFFF756FFAD
:103BF0002846FFF7A5FDFFF751FFFFF727FE701CD2
:103C0000C0B2FFF79DFDFFF749FF00252846FFF7EB
:103C100015FD2070FFF7AAFE284670BD70B514464A
:103C20000D460646FFF712FE7006000EFFF788FDF0
:103C3000FFF734FF2846FFF783FDFFF72FFF2046ED
:103C4000FFF77EFDFFF72AFFFFF790FE002070BD13
:103C5000F0B581B01F4614460091064612480699F9
:103C6000FDF7D0F8394601F0DBFB7F21CF0539465F
:103C700001F066FB01463846FDF7C4F80546316899
:103C800001F0CEFB06463846294601F02DFC21689E
:103C900001F0C6FB0146304601F052FB0099086076
:103CA000206001B0F0BDC04683F9223E10B582B05D
:103CB000AE48016801221143016000681040019084
:103CC00001980A24002120460A46FDF7C7FE204637
:103CD000FDF7B8FE02B010BDF0B587B00024069421
:103CE00005940127B905A14802680A4302600268E9
:103CF0000A4001920199790402680A43026002684D
:103D00000A4001920199B90402680A4302600068FE
:103D10000840019001981C481C492246FDF737FED7
:103D20000494112005040395102002900920C00678
:103D300002AE3146FDF742FD059404940397144802
:103D4000029011483146FDF739FD04940395042093
:103D500002900D483146FDF731FD03250595049489
:103D6000039738030290084C20463146FDF726FDA4
:103D70000595049703977803029020463146FDF796
:103D80001DFD07B0F0BDC0460004004803700000F0
:103D900003400000F0B581B0A24800210722016273
:103DA00041628162C26201634163102301240225E2
:103DB0000A4E12024127BF00C0C0FC370838064631
:103DC000083626C644618761C361FEF751FA0028B0
:103DD00001D0FDF78BFB01B0F0BDC04600300140C3
:103DE00010B50948802181610021084A2F23084C21
:103DF000046043608160C2600161FEF70DFE00282F
:103E000001D0FDF773FB10BD98020020FFFF0000FA
:103E100000200040B0B50A4880210022094B2F2421
:103E2000094D056044608260C36002614261816146
:103E3000FEF7F2FD002801D0FDF758FBB0BDC046EB
:103E4000E00200208813000000440140F0B59DB05E
:103E500000241694159414941394119410940F94B0
:103E60000E940D940C940B940A9409943C48802170
:103E70003C4A0B233C4E066043608460C260046190
:103E80004461816108940794069405940494039412
:103E900002940194FEF7C0FD002801D0FDF726FB37
:103EA0000127380313902E4813A9FEF7B5FE00280A
:103EB00001D0FDF71BFB2A48FFF736F9002801D097
:103EC000FDF714FB11941094254810A9FEF780FD0E
:103ED000002801D0FDF70AFB0A94602009900B949A
:103EE0000C940D940E940F941D4809A92246FEF7D8
:103EF000E7FF002801D0FDF7F9FA05940494039434
:103F000002940194089478030690154D01A928465F
:103F1000FEF730FD002801D0FDF7E8FA1C941B9451
:103F20001A94199418942868B04201D01DB0F0BDBD
:103F300078040E490A6802430A6009680140179133
:103F400002201C9003211B911A901990380218909E
:103F50000920C006179918A9FDF730FC1DB0F0BD67
:103F600050020020409C0000002C01401410024030
:103F700010B586B0F24880218161002415492F22B6
:103F8000154B036042608460C16004610594049431
:103F90000394029401940094FEF73EFD002801D0A2
:103FA000FDF7A4FA012000030290E54802A9FEF7FC
:103FB00033FE002801D0FDF799FA01940094E048FF
:103FC0006946FEF705FD002801D0FDF78FFA06B01F
:103FD00010BDC046102700000004004010B50B487B
:103FE00000210C220A4B01624162E124640218C0E4
:103FF000016041608160C260016141610838FFF782
:104000005BF9002801D0FDF771FA10BD70030020A4
:1040100000380140FEE7704780B50248FEF79AF885
:1040200080BDC046EC01002080B5406A46210022D8
:104030004252C287FEF78CF880BD0000F0B587B011
:104040001E4614460D46049005A800270770FDF78C
:10405000A7FC301A02940419FDF7A2FC03906D48E6
:10406000006823214143080D0499604306900E68BF
:10407000B068284221D0019703214F02BD421FD1D1
:1040800000913046029D04E004980068816839423E
:104090002ED0317B05AA11700599691CF6D0FDF769
:1040A0007FFC0399401AA04225D206980699491E22
:1040B00006910028E8D10446E6E7384607B0F0BD8F
:1040C0000298401C40D0009104E004980068806889
:1040D00028420DD0FDF764FC0399401AA0420AD291
:1040E00006980699491E06910028EED10446ECE791
:1040F000019807B0F0BD049C20684168E02291431C
:1041000041604121890062688A420BD1A168012285
:10411000D303994202D09202914203D10168402216
:104120009143016001214A03A36A5C34934205D1A3
:104130000368934303600368134303600020207007
:104140006170009807B0F0BD0199B0682842FCD1B9
:10415000084607B0F0BDC046F0B583B015460F461F
:104160000446FDF71DFC281AC519FDF719FC064683
:10417000284800684001000D684302902268916859
:104180000020090608D5791C03D0019027465C372A
:1041900008E091680906FCD403B0F0BD206880688F
:1041A000000633D5FDF7FCFB801BA84207D202981E
:1041B0000299491E02910028F0D10546EEE72068D9
:1041C0004168E022914341604121890062688A424E
:1041D0000BD1A1680122D303994202D092029142ED
:1041E00003D1016840229143016001214A03A36A7F
:1041F000934205D10368934303600368134303604C
:10420000002038707970032003B0F0BD019803B02E
:10421000F0BDC0460800002070470000F0B581B036
:1042200004463F200106204601F0FAF805466010DA
:1042300013490F1A2846394601F0F2F8394601F0C1
:10424000EFF80146FF208605304601F04DF939466A
:1042500001F0E6F807462846394601F0E1F8014644
:10426000384601F0DDF80146304601F03DF90146DF
:10427000384601F0D5F8214601F0D2F801B0F0BD82
:10428000DF59375F80B5FDF78FFB80BD70470000B9
:10429000F0B581B00B48FEF76EFD0B4E002030608C
:1042A0000A4F3C1D2046FCF7C9FF3D461035284605
:1042B000FDF720F92046294600F0CEF93068388015
:1042C00001B0F0BDE00200202420004020010020C9
:1042D00070B582B01A48FEF74EFD00F063FD04464B
:1042E00000F0B5F9174900F0C6FE002801D11648C4
:1042F0000460164E0096144C211D224608324320BD
:10430000050620462B46FFF7A3FC606800F022FD5F
:104310000146E0600E4801F0E7F80E4901F080F830
:104320000D49FCF76FFD20610096204610302146B4
:104330001431183422462B46FFF78AFC02B070BDB8
:10434000280300200000C842D0010020CDCCCC3D85
:104350000038C747E17A9D4200002041B0B5416A6C
:10436000CA070CD18A0714D44A071CD40A0724D4DC
:10437000CA062CD48A0634D44A063CD44CE0012226
:10438000520403685C689443826A22435A608A0735
:10439000EAD50122120403685C689443C26A22438E
:1043A0005A604A07E2D50122920403685C6894438C
:1043B000026B22435A600A07DAD50122D20303684E
:1043C0005C689443426B22435A60CA06D2D50122EC
:1043D000120303689C689443826B22439A608A06A6
:1043E000CAD50122520303689C689443C26B2243DE
:1043F0009A604A0610D501221305026854689C434E
:10440000056C2C4354609D4206D103235B05546820
:104410009C43436C23435360090607D50121C9041B
:10442000026853688B43806C18435060B0BD000035
:10443000B0B5044600680168394A0A40A16823699A
:104440000B4365691D43E1690D4315430560032274
:10445000120343689343E2681A434260A269236AE5
:1044600013430B221202856895431D4385602D4836
:1044700000688007000F2CA213580125EA032E487C
:1044800091420FD1082B46D87B441B795B009F4497
:1044900004422042194242421F00FDF72BFC002833
:1044A00017D113E0082B36D87B441B795B009F445F
:1044B00004322732203232322600FDF71BFC00285E
:1044C0001ED11AE0FDF724FC002802D1002522E0CD
:1044D0001046400061684A08101800F0B5FC174902
:1044E000014018D00007400F08432168C86000252C
:1044F00011E0FDF70DFC002802D100250BE010466D
:1045000061684A08101800F09FFC80B2102802D39E
:104510002168C860002500206066A0662846B0BDFE
:10452000F369FFFF301002400000000004000000AB
:10453000080000000200000000127A00F0FF0000F6
:10454000F0B587B016460F4605460468E169394064
:10455000C91B4A424A410020B2420FD1069304953A
:104560002A4674320C9D002D0AD0691C2CD1E169B9
:104570003940C91B4A424A41B242F8D007B0F0BDA7
:104580000392FDF70DFA049CEFF31081012080F3F4
:1045900010880D22520123681D6895431D6081F328
:1045A0001088EFF3108180F31088226893688343AA
:1045B000936081F310882020A0670021039A117076
:1045C000E067032007B0F0BD029003920120019044
:1045D000C0020590049C06E0C0693840C01B4142FF
:1045E0004141B14230D1FDF7DBF90699401AA842AA
:1045F000CAD8206801684907EED5C169059A1142F9
:10460000EAD005990162EFF31080019D85F31088CF
:104610000D214901226813688B43136080F31088D1
:10462000EFF3108085F3108821688A68AA438A60B6
:1046300080F310882020A067E0670021039A1170A2
:10464000D060032007B0F0BD029807B0F0BD012193
:10465000C907884370470000F0B597B00D4604467F
:104660008868AC4F394600F0DBFE0146AA4E306B3D
:1046700000F066FE29680E916968129130636068E7
:10468000014600F0CDFE0546A068014600F0C8FED8
:104690000146284600F054FEB16A0D91F16A11916D
:1046A0009E4909691091B16D0B912568FFF7B6FD20
:1046B0000146284600F0F6FC0C906068A16800F006
:1046C000F1FC0F903446F06C716E069100F00CFF17
:1046D000B66E2546314600F007FF394600F0A0FED1
:1046E0000146206E00F02CFE07460190E06E0A9015
:1046F0008B4900F095FE01460290304600F020FE06
:1047000006460490616D384600F01AFE04463046B5
:104710002146FCF777FB1690686738462146FCF780
:1047200071FB159028677D4E3068B169079100F0E4
:10473000DBFEF469214600F0D7FE764900F070FEFA
:104740000146706900F0FCFD07460590306A08904C
:10475000734900F065FE01460390204600F0F0FD2D
:1047600005460990B168384600F0EAFD044628463F
:104770002146FCF747FB1490B06238462146FCF70F
:1047800041FB139070620698029900F0D9FD04462F
:10479000159E314600F044FE0146204600F0A4FE7E
:1047A00005465D4C6066019F3846314600F038FE94
:1047B0000146384600F098FE014620662646169CC3
:1047C000204600F02DFE0146049800F08DFEB066F4
:1047D0002046294600F024FE0446306D4D4900F085
:1047E0001FFE01460A9800F0ABFD214600F07CFE5A
:1047F000F0660798039900F0A3FD0446139F39461D
:1048000000F00EFE0146204600F06EFE01460A90C2
:10481000149E304600F004FE0546404C60683D4959
:1048200000F0FEFD0146089800F08AFD294600F0E0
:104830005BFE2062059D2846394600F0F1FD0146E9
:10484000284600F051FE05463046294600F0E8FDB6
:104850000146099800F048FE65610A9AA261E0618C
:104860000B980E9900F040FE2A4F394600F0D8FD13
:104870000D9900F039FE04462A490C9800F0D0FD4D
:10488000FCF796FA284D294B2A46FBF71DFFFBF74C
:1048900031FD214600F054FD0446159900F0C0FD9D
:1048A0001D4EB16A00F04CFDB0621098129900F0F4
:1048B0001BFE394600F0B4FD119900F015FE0746C5
:1048C0001B490F9800F0ACFDFCF772FA2A46174B13
:1048D000FBF7FAFEFBF70EFD394600F031FD054609
:1048E000139900F09DFDF16A00F02AFDF062204668
:1048F000169900F095FDB16D00F022FDB0652846D7
:10490000149900F08DFD054CE16800F019FDE060A0
:1049100017B0F0BD0AD7A33BA8000020F403002085
:104920000AD7A3BB000034C36F1283C0CA21094059
:104930000000344394B0FDF741F800250F950E9523
:104940000D950C950B950A95099507950695059576
:104950000495039502950195009510200C90012077
:104960000B9013950520C004129011950224109409
:10497000089408A8FDF7FAF9002803D0EFF3108097
:1049800072B6FEE70795069505940720049004A8E3
:1049900001242146FDF706F9002803D0EFF310802B
:1049A00072B6FEE7029500946846FDF777F8002896
:1049B00003D0EFF3108072B6FEE7FFF78DF9FFF733
:1049C0000DFBFFF743FAFFF70BFAFFF76FF9FFF75D
:1049D000E1F9FFF7CDFAFFF71DFA10486421104AFC
:1049E000426081600F494180FCF784FC00F062F96D
:1049F0000D4C2046FEF7C6F800212046FEF7F6FBD8
:104A00000A48FEF7BFF80A48FEF7DEF80948FEF745
:104A1000DBF80A20FCF7C2FEFBE7C0463C010020A1
:104A20000000A0412823000050020020980200202E
:104A300028030020E0020020F0B583B07624102186
:104A400002AD20462A46FFF7C7F82F78112502AE9F
:104A5000204629463246FFF7BFF838013178090968
:104A600040180F210A03390602D51746801800E0C6
:104A70001746F349088002AE204629463246FFF722
:104A8000ABF83678122102AD20462A46FFF7A4F88B
:104A90003107080D2A788018002900D5C019E84987
:104AA0008880132102AD20462A46FFF795F82F781B
:104AB000142102AD20462A46FFF78EF8287801908F
:104AC000152502AE204629463246FFF785F8380301
:104AD0000199090108183178090940183B4A39063B
:104AE00000D58018D649C86102AE20462946324614
:104AF000FFF772F83678162102AD20462A46FFF7F6
:104B00006BF82F78172102AD20462A46FFF764F88C
:104B100030043902081829784018310701D52B498B
:104B20000843C74F3862182102AA2046FFF754F8FD
:104B3000029E192102AD20462A46FFF74DF83002A9
:104B40002978401838811A2102AA2046FFF744F834
:104B5000029E1B2102AD20462A46FFF73DF8300297
:104B600029784018B8811C2102AA2046FFF734F8A2
:104B7000029E1D2102AD20462A46FFF72DF8300285
:104B80002978401838821E2102AA2046FFF724F80F
:104B9000029E1F2102AD20462A46FFF71DF8300273
:104BA00029784018B882202102AA2046FFF714F87D
:104BB000029E212102AD20462A46FFF70DF8300261
:104BC00029784018388303B0F0BDC0460000F0FFDC
:104BD000F0B583B09A4DE86AFCF7E8F90446686BD3
:104BE0002E46FCF7E3F901462046FCF70BF9074691
:104BF0000290A86AFCF7DAF90546306B3446FCF7F8
:104C0000D5F901462846FCF7FDF805463846294601
:104C100000F006FC06460C20205EFCF7C7F90746AC
:104C20001420205EFCF7C2F90146284600F0F8FB8C
:104C3000394600F085FB0146304600F0F1FB01905B
:104C4000206AFCF7B3F907461020205EFCF7AEF9A6
:104C500006461820205EFCF7A9F90146284600F018
:104C6000DFFB314600F06CFB0146284600F0D8FB24
:104C7000394600F065FB0646E069FCF797F9074600
:104C80002846314600F0CCFB394600F059FB05467A
:104C90000820205EFCF78AF90146029800F0C0FB6C
:104CA000294600F04DFB0146019800F049FB03B096
:104CB000F0BDC046F0B585B07620082101AC224693
:104CC000FEF78AFF207840B20028F5D5FFF7B4FE42
:104CD0007620082102AC2246FEF77EFF20784006AF
:104CE000F6D576200D2103AC2246FEF775FF20781D
:104CF0002421534F7854F0210140102927D17624E4
:104D0000092504AE204629463246FEF765FF307875
:104D10000422024320462946FEF780FF1F2040035D
:104D20003863062174222046FEF778FF0320C00472
:104D300078630725F12220462946FEF76FFF0821F8
:104D400020462A46FEF76AFF002005B0F0BD01208C
:104D500005B0F0BDF0B583B0762400216D46204645
:104D60002A46FEF739FF2E78012101AD20462A465A
:104D7000FEF732FF2F78022102AD20462A46FEF7C9
:104D80002BFF30043902081829784018310602D563
:104D9000FF21090640182A498862FFF719FF03B06E
:104DA000F0BDC046F0B585B07625032102AC28469B
:104DB0002246FEF711FF2478042103AE2846019114
:104DC0003246FEF709FF3778052104AE2846324601
:104DD000FEF702FF20043902081831784018210636
:104DE00002D5FF2109064018154CE062FCF7DEF8F9
:104DF0000546606BFCF7DAF801462846FCF702F836
:104E00000546208800B2FBF7A4FE00220D4BFBF7FD
:104E1000ABFE06460F460198205EFCF7C7F8014638
:104E2000284600F0FDFAFBF7C3FF02460B4630466A
:104E30003946FBF719FCFBF75DFA05B0F0BDC0463B
:104E4000700000200000E03F43088B421AD300228C
:104E500003098B4279D3030A8B425ED3030B8B4247
:104E600042D3030C8B4227D30902FF2212BA030C50
:104E70008B4202D31212090203D0030B8B4233D3AD
:104E80001AE0D3E0411A8041401C704703460B43AF
:104E900071D443088B42F5D3002203098B4254D3CB
:104EA000030A8B4239D3030B8B421DD3030C8B4275
:104EB00002D394466EE0090AC30B8B4201D3CB03A5
:104EC000C01A5241830B8B4201D38B03C01A52414B
:104ED000430B8B4201D34B03C01A5241030B8B424D
:104EE00001D30B03C01A5241C30A8B4201D3CB0238
:104EF000C01A5241830A8B4201D38B02C01A52411D
:104F0000430A8B4201D34B02C01A5241030A8B421F
:104F100001D30B02C01A5241CDD2C3098B4201D337
:104F2000CB01C01A524183098B4201D38B01C01AB5
:104F3000524143098B4201D34B01C01A524103092C
:104F40008B4201D30B01C01A5241C3088B4201D3DB
:104F5000CB00C01A524183088B4201D38B00C01A88
:104F6000524143088B4201D34B00C01A5241411AAF
:104F7000524110007047CA0F00D04942031000D3BD
:104F80004042534000229C4603098B422DD3030A22
:104F90008B4212D38901FC2212BA030A8B420CD332
:104FA000890192118B4208D3890192118B4204D35B
:104FB000890137D0921100E08909C3098B4201D3DE
:104FC000CB01C01A524183098B4201D38B01C01A15
:104FD000524143098B4201D34B01C01A524103098C
:104FE0008B4201D30B01C01A5241C3088B4201D33B
:104FF000CB00C01A524183088B4201D38B00C01AE8
:105000005241D9D243088B4201D34B00C01A5241BE
:10501000411A00D201465241104663465B1000D34C
:105020004042704763465B1000D3404201B5002107
:10503000004201D0C9430846C046C04602BD4100F7
:10504000080200D004200A0E01D001221043090EEC
:10505000FF2901D102210843012800D10520704712
:1050600010B500F06DF910BD5E2110B5C9430807F9
:10507000FCF70AF810BD10B500F0A8F9EFF30080B6
:10508000800001D5012010BD002010BD10B500F03A
:105090009DF9EFF300804000800F012800D0002030
:1050A00010BD0000F0B50C4601461D224B00D20693
:1050B0009F18E52605463606620087B02046B742AF
:1050C0007BD21D27FF06D719B74276D24F00430087
:1050D0003E0E1A0EB21A1B2A07DD002902DA854895
:1050E00007B0F0BD844807B0F0BD1A26F2422FDAAF
:1050F000002807DA002902DA804807B0F0BD8048AE
:1051000007B0F0BD21462846FBF77CFE0646FFF7B8
:1051100096FF042801D1FFF7A7FF2846FFF78FFF6E
:1051200005462046FFF78BFF04463046FFF787FF12
:10513000042D01D0052D08D1042C01D0052C04D15B
:10514000002802D10220FBF741FF304607B0F0BD36
:105150009F4211D9002902DA6A4F6B4E01E06B4F72
:105160006B4E23462C461D4601220346D2070846B5
:105170005440504019460BE0002807DA002902DAB3
:10518000644F654E04E0654F654E01E000263746EA
:10519000421A012352001B069A422FD2484061490D
:1051A0000CD5BF2000060290384600F09DF9074656
:1051B0005D49304600F098F90BE053E03F200006CF
:1051C0000290384600F0BCF807465749304600F0D8
:1051D000B7F806462846029900F022F9214600F069
:1051E000AFF800902146029800F01AF9294600F025
:1051F0006FF90099FBF706FE044604E021462846B5
:10520000FBF700FE0446014600F00AF9474900900A
:1052100000F006F9464900F093F8009900F000F913
:10522000444900F08DF8009900F0FAF8424900F086
:1052300087F8009900F0F4F8404900F081F805463D
:105240002046009900F0ECF8294600F0E9F83146D4
:1052500000F076F8214600F073F8394600F070F857
:1052600007B0F0BDFF263606B34201D8B24205D9D9
:1052700001462846FFF7F4FE07B0F0BD2F4607436E
:105280007F000AD0B3420CD1B2420AD10122920768
:10529000904391430D46044618E7FF22D205104380
:1052A000F9E7B3420CD047000AD0B2420ED04E000C
:1052B0000CD05340F0D4002A0EDB9F26F6050DE0FB
:1052C000FF22D2051143E00FC007FFE6C90FC9074F
:1052D000FF22D2051043F9E65F26F605314628463F
:1052E00000F09EF805463146204600F099F8044645
:1052F0002946EBE6DB0FC9BFDB0FC93FDB0F49C017
:10530000DB0F49400000C9BF22AAFDB90000C93F18
:1053100022AAFD39000049C022AA7DBA00004940F6
:1053200022AA7D3A0060ED3EC30ACE372DAD65BDA1
:105330008FB8D53D0FB511BE61C84C3EA8AAAABE14
:1053400070B50125ED0704004C4020D4441A01D269
:10535000001B0919C60D4B00F2B2FF2A29D01B0E03
:105360002CD000020C0228432C43D31ADC40051930
:1053700010D2280A02D3401C6D0611D0761EF60505
:105380008019FF2A00DA70BDC00DC00570BD6940EC
:1053900000F0B0F801200543C541521C761CE8E737
:1053A00064089C40C90161408900E7D10124A04301
:1053B000E4E71B0E440200D0034870BD002AFCD174
:1053C000C00FC00770BD00BF0000C07F0123DB0518
:1053D00002000A430DD4DA4203D49A4207D4884229
:1053E0007047D84214D4D94212D4884270478042C0
:1053F0007047DA4203D59A42F9D5814270475B0083
:105400004200DA4204D24A00DA4201D281427047B5
:1054100010B5024AFBF75EFE10BD00BF0900130481
:1054200070B5420064414B005C41120E39D01B0E36
:1054300038D0FF2A3CD0FF2B3AD0D2187F3A400216
:105440004902400A490A4518ED0106004E43000A88
:10545000090A48430104731A4019190C4318990F9B
:1054600004D05B08012149075B1A521CD80904D3F8
:10547000401CF50301D19D0607D0FF2A08D2D505AF
:1054800006D0E4072043401970BD0125A843F4E786
:10549000002A01DCE00770BD2402FF202043C00584
:1054A00070BD1B0EFF2A03D0FF2B01D0E00770BD9B
:1054B000FF2636064500B54206D84D00B54203D852
:1054C000D218FF2A00D0E7E7004870BD0000C07F77
:1054D00070B50125ED07684004004C4002D56940D5
:1054E00000F008F8FFF732FF70B50125ED07040062
:1054F0004C4022D4441A02D26C40001B0919C60D3C
:105500004B00F2B2FF2A4BD01B0E50D000020C020F
:10551000A8432C43D31ADC40051B05D5AD0019D395
:105520006D08761E521E37D0F605280A01D2801962
:1055300070BD70416D0603D070BD6940FFF706FF76
:105540009C4009026140490001D0401E70BD012409
:10555000A04370BD6D081DD001202B0C01D12D047E
:1055600010302B0E01D12D0208302B0F01D12D014F
:10557000001DAB0F01D1AD00801CEB0F01D16D0000
:10558000401C361A121A6D00680AF5054019012AE6
:1055900002DB70BD002070BDC036300AC00770BD90
:1055A0001B0E440201D1FF2B00D1024870BD002A1E
:1055B000F0D070BD0000C07F303132333435363723
:1055C0003839414243444546403058003031323347
:1055D0003435363738396162636465664030780047
:1055E00080807F7E7D7C7B7A797877767675747320
:1055F000727171706F6E6E6D6C6C6B6A6A696868DF
:10560000676666656464636362616160605F5F5E74
:105610005E5D5D5C5C5B5B5A5A59595858575756EA
:10562000565555555454535352525251515050504F
:105630004F4F4F4E4E4D4D4D4C4C4C4B4B4B4A4AA1
:105640004A494949484848474747474646464545E5
:10565000454444444443434343424242424141411E
:105660008182838485868788898B8C8D8E8F9192A9
:1056700093959697999A9C9D9FA0A2A3A5A7A8AA47
:10568000ACAEB0B2B3B5B7B9BCBEC0C2C5C7C9CC69
:10569000CED1D4D7D9DCDFE2E6E9ECF0F3F7FAFEBD
:1056A00000000000000000000102030406070809D2
:1056B00000000000010203040203040506070809B4
:1056C0000A0B0C0D0E0F101001020304050607084B
:1056D000090A0B0C0D0E0F10F856000800000020F0
:1056E00010000000F4000008085700081000002017
:1056F000180A00001001000801000000040000006A
:0857000000127A000100000014
:04000005080000B13E
:00000001FF
